{
  "_format": "hh-sol-artifact-1",
  "contractName": "Campaign",
  "sourceName": "contracts/CampaignFactory.sol",
  "abi": [
    {
      "inputs": [
        {
          "internalType": "address",
          "name": "_creator",
          "type": "address"
        },
        {
          "internalType": "address",
          "name": "_admin",
          "type": "address"
        },
        {
          "internalType": "uint256",
          "name": "_minimum",
          "type": "uint256"
        },
        {
          "internalType": "address",
          "name": "_actualToken",
          "type": "address"
        },
        {
          "internalType": "address",
          "name": "_ibTokenAddress",
          "type": "address"
        }
      ],
      "stateMutability": "nonpayable",
      "type": "constructor"
    },
    {
      "inputs": [],
      "name": "actualToken",
      "outputs": [
        {
          "internalType": "address",
          "name": "",
          "type": "address"
        }
      ],
      "stateMutability": "view",
      "type": "function"
    },
    {
      "inputs": [],
      "name": "admin",
      "outputs": [
        {
          "internalType": "address",
          "name": "",
          "type": "address"
        }
      ],
      "stateMutability": "view",
      "type": "function"
    },
    {
      "inputs": [
        {
          "internalType": "uint256",
          "name": "_amount",
          "type": "uint256"
        }
      ],
      "name": "adminClaim",
      "outputs": [],
      "stateMutability": "payable",
      "type": "function"
    },
    {
      "inputs": [
        {
          "internalType": "address",
          "name": "",
          "type": "address"
        }
      ],
      "name": "approvers",
      "outputs": [
        {
          "internalType": "bool",
          "name": "",
          "type": "bool"
        }
      ],
      "stateMutability": "view",
      "type": "function"
    },
    {
      "inputs": [],
      "name": "approversCount",
      "outputs": [
        {
          "internalType": "uint256",
          "name": "",
          "type": "uint256"
        }
      ],
      "stateMutability": "view",
      "type": "function"
    },
    {
      "inputs": [
        {
          "internalType": "address",
          "name": "",
          "type": "address"
        }
      ],
      "name": "campaignBalance",
      "outputs": [
        {
          "internalType": "uint256",
          "name": "",
          "type": "uint256"
        }
      ],
      "stateMutability": "view",
      "type": "function"
    },
    {
      "inputs": [
        {
          "internalType": "uint256",
          "name": "_amount",
          "type": "uint256"
        }
      ],
      "name": "claim",
      "outputs": [],
      "stateMutability": "payable",
      "type": "function"
    },
    {
      "inputs": [
        {
          "internalType": "uint256",
          "name": "_amount",
          "type": "uint256"
        }
      ],
      "name": "contribute",
      "outputs": [],
      "stateMutability": "payable",
      "type": "function"
    },
    {
      "inputs": [],
      "name": "getSummary",
      "outputs": [
        {
          "internalType": "uint256",
          "name": "minimumContribution_",
          "type": "uint256"
        },
        {
          "internalType": "uint256",
          "name": "interestRate_",
          "type": "uint256"
        },
        {
          "internalType": "uint256",
          "name": "totalBalance_",
          "type": "uint256"
        },
        {
          "internalType": "uint256",
          "name": "approversCount_",
          "type": "uint256"
        },
        {
          "internalType": "address",
          "name": "manager_",
          "type": "address"
        },
        {
          "internalType": "address",
          "name": "actualToken_",
          "type": "address"
        },
        {
          "internalType": "address",
          "name": "ibTokenAddress_",
          "type": "address"
        },
        {
          "internalType": "address[]",
          "name": "supportedTokens_",
          "type": "address[]"
        }
      ],
      "stateMutability": "view",
      "type": "function"
    },
    {
      "inputs": [
        {
          "internalType": "address",
          "name": "_user",
          "type": "address"
        }
      ],
      "name": "getUserBalance",
      "outputs": [
        {
          "internalType": "uint256",
          "name": "userBal_",
          "type": "uint256"
        }
      ],
      "stateMutability": "view",
      "type": "function"
    },
    {
      "inputs": [],
      "name": "ibTokenAddress",
      "outputs": [
        {
          "internalType": "address",
          "name": "",
          "type": "address"
        }
      ],
      "stateMutability": "view",
      "type": "function"
    },
    {
      "inputs": [],
      "name": "interestRate",
      "outputs": [
        {
          "internalType": "uint256",
          "name": "",
          "type": "uint256"
        }
      ],
      "stateMutability": "view",
      "type": "function"
    },
    {
      "inputs": [],
      "name": "manager",
      "outputs": [
        {
          "internalType": "address",
          "name": "",
          "type": "address"
        }
      ],
      "stateMutability": "view",
      "type": "function"
    },
    {
      "inputs": [],
      "name": "minimumContribution",
      "outputs": [
        {
          "internalType": "uint256",
          "name": "",
          "type": "uint256"
        }
      ],
      "stateMutability": "view",
      "type": "function"
    },
    {
      "inputs": [
        {
          "internalType": "address",
          "name": "_actualToken",
          "type": "address"
        }
      ],
      "name": "setActualToken",
      "outputs": [
        {
          "internalType": "address",
          "name": "actualToken_",
          "type": "address"
        }
      ],
      "stateMutability": "nonpayable",
      "type": "function"
    },
    {
      "inputs": [
        {
          "internalType": "uint256",
          "name": "_interestRate",
          "type": "uint256"
        }
      ],
      "name": "setInterestRate",
      "outputs": [],
      "stateMutability": "nonpayable",
      "type": "function"
    },
    {
      "inputs": [
        {
          "internalType": "uint256",
          "name": "_amount",
          "type": "uint256"
        }
      ],
      "name": "setMinimumContribution",
      "outputs": [
        {
          "internalType": "uint256",
          "name": "amount_",
          "type": "uint256"
        }
      ],
      "stateMutability": "nonpayable",
      "type": "function"
    },
    {
      "inputs": [
        {
          "internalType": "uint256",
          "name": "",
          "type": "uint256"
        }
      ],
      "name": "supportedTokens",
      "outputs": [
        {
          "internalType": "address",
          "name": "",
          "type": "address"
        }
      ],
      "stateMutability": "view",
      "type": "function"
    },
    {
      "inputs": [
        {
          "internalType": "address",
          "name": "",
          "type": "address"
        }
      ],
      "name": "userBalance",
      "outputs": [
        {
          "internalType": "uint256",
          "name": "",
          "type": "uint256"
        }
      ],
      "stateMutability": "view",
      "type": "function"
    }
  ],
  "bytecode": "0x60806040523480156200001157600080fd5b506040516200198d3803806200198d83398181016040528101906200003791906200025c565b846000806101000a81548173ffffffffffffffffffffffffffffffffffffffff021916908373ffffffffffffffffffffffffffffffffffffffff16021790555083600160006101000a81548173ffffffffffffffffffffffffffffffffffffffff021916908373ffffffffffffffffffffffffffffffffffffffff1602179055508260028190555081600560006101000a81548173ffffffffffffffffffffffffffffffffffffffff021916908373ffffffffffffffffffffffffffffffffffffffff1602179055506006829080600181540180825580915050600190039060005260206000200160009091909190916101000a81548173ffffffffffffffffffffffffffffffffffffffff021916908373ffffffffffffffffffffffffffffffffffffffff16021790555080600760006101000a81548173ffffffffffffffffffffffffffffffffffffffff021916908373ffffffffffffffffffffffffffffffffffffffff16021790555060056003819055505050505050620002e4565b600080fd5b600073ffffffffffffffffffffffffffffffffffffffff82169050919050565b6000620001e982620001bc565b9050919050565b620001fb81620001dc565b81146200020757600080fd5b50565b6000815190506200021b81620001f0565b92915050565b6000819050919050565b620002368162000221565b81146200024257600080fd5b50565b60008151905062000256816200022b565b92915050565b600080600080600060a086880312156200027b576200027a620001b7565b5b60006200028b888289016200020a565b95505060206200029e888289016200020a565b9450506040620002b18882890162000245565b9350506060620002c4888289016200020a565b9250506080620002d7888289016200020a565b9150509295509295909350565b61169980620002f46000396000f3fe6080604052600436106101145760003560e01c80637c3a00fd116100a0578063bf4e56b311610064578063bf4e56b3146103a2578063c1cbbca7146103df578063c6255626146103fb578063dba3e70414610438578063f851a4401461047557610114565b80637c3a00fd146102da57806382fde093146103055780638ad96d7d14610330578063937e09b11461034c578063a6fcf79c1461037757610114565b806338bb5b07116100e757806338bb5b07146101ec5780634051ddac146102175780634773489214610249578063481c6a75146102865780635f84f302146102b157610114565b80630103c92b146101195780630a144391146101565780630ebda6ae14610193578063379607f5146101d0575b600080fd5b34801561012557600080fd5b50610140600480360381019061013b91906111c8565b6104a0565b60405161014d919061120e565b60405180910390f35b34801561016257600080fd5b5061017d600480360381019061017891906111c8565b6104b8565b60405161018a9190611244565b60405180910390f35b34801561019f57600080fd5b506101ba60048036038101906101b591906111c8565b6104d8565b6040516101c7919061120e565b60405180910390f35b6101ea60048036038101906101e5919061128b565b6104f0565b005b3480156101f857600080fd5b50610201610898565b60405161020e91906112c7565b60405180910390f35b34801561022357600080fd5b5061022c6108be565b6040516102409897969594939291906113a0565b60405180910390f35b34801561025557600080fd5b50610270600480360381019061026b91906111c8565b610a3e565b60405161027d919061120e565b60405180910390f35b34801561029257600080fd5b5061029b610a87565b6040516102a891906112c7565b60405180910390f35b3480156102bd57600080fd5b506102d860048036038101906102d3919061128b565b610aab565b005b3480156102e657600080fd5b506102ef610b0d565b6040516102fc919061120e565b60405180910390f35b34801561031157600080fd5b5061031a610b13565b604051610327919061120e565b60405180910390f35b61034a6004803603810190610345919061128b565b610b19565b005b34801561035857600080fd5b50610361610c8d565b60405161036e919061120e565b60405180910390f35b34801561038357600080fd5b5061038c610c93565b60405161039991906112c7565b60405180910390f35b3480156103ae57600080fd5b506103c960048036038101906103c491906111c8565b610cb9565b6040516103d691906112c7565b60405180910390f35b6103f960048036038101906103f4919061128b565b610dbe565b005b34801561040757600080fd5b50610422600480360381019061041d919061128b565b611098565b60405161042f91906112c7565b60405180910390f35b34801561044457600080fd5b5061045f600480360381019061045a919061128b565b6110d7565b60405161046c919061120e565b60405180910390f35b34801561048157600080fd5b5061048a61113f565b60405161049791906112c7565b60405180910390f35b60096020528060005260406000206000915090505481565b60086020528060005260406000206000915054906101000a900460ff1681565b600a6020528060005260406000206000915090505481565b600960003373ffffffffffffffffffffffffffffffffffffffff1673ffffffffffffffffffffffffffffffffffffffff1681526020019081526020016000205481111580156105a05750600a6000600560009054906101000a900473ffffffffffffffffffffffffffffffffffffffff1673ffffffffffffffffffffffffffffffffffffffff1673ffffffffffffffffffffffffffffffffffffffff168152602001908152602001600020548111155b6105df576040517f08c379a00000000000000000000000000000000000000000000000000000000081526004016105d690611482565b60405180910390fd5b600760009054906101000a900473ffffffffffffffffffffffffffffffffffffffff1673ffffffffffffffffffffffffffffffffffffffff166379cc679033836040518363ffffffff1660e01b815260040161063c9291906114a2565b600060405180830381600087803b15801561065657600080fd5b505af115801561066a573d6000803e3d6000fd5b5050505080600960003373ffffffffffffffffffffffffffffffffffffffff1673ffffffffffffffffffffffffffffffffffffffff16815260200190815260200160002060008282546106bd91906114fa565b9250508190555080600a6000600560009054906101000a900473ffffffffffffffffffffffffffffffffffffffff1673ffffffffffffffffffffffffffffffffffffffff1673ffffffffffffffffffffffffffffffffffffffff168152602001908152602001600020600082825461073591906114fa565b92505081905550600560009054906101000a900473ffffffffffffffffffffffffffffffffffffffff1673ffffffffffffffffffffffffffffffffffffffff1663a9059cbb33836040518363ffffffff1660e01b81526004016107999291906114a2565b6020604051808303816000875af11580156107b8573d6000803e3d6000fd5b505050506040513d601f19601f820116820180604052508101906107dc919061155a565b506000600960003373ffffffffffffffffffffffffffffffffffffffff1673ffffffffffffffffffffffffffffffffffffffff1681526020019081526020016000205403610895576000600860003373ffffffffffffffffffffffffffffffffffffffff1673ffffffffffffffffffffffffffffffffffffffff16815260200190815260200160002060006101000a81548160ff0219169083151502179055506004600081548092919061088f90611587565b91905055505b50565b600760009054906101000a900473ffffffffffffffffffffffffffffffffffffffff1681565b6000806000806000806000606060025497506003549650600a6000600560009054906101000a900473ffffffffffffffffffffffffffffffffffffffff1673ffffffffffffffffffffffffffffffffffffffff1673ffffffffffffffffffffffffffffffffffffffff168152602001908152602001600020549550600454945060008054906101000a900473ffffffffffffffffffffffffffffffffffffffff169350600560009054906101000a900473ffffffffffffffffffffffffffffffffffffffff169250600760009054906101000a900473ffffffffffffffffffffffffffffffffffffffff1691506006805480602002602001604051908101604052809291908181526020018280548015610a2d57602002820191906000526020600020905b8160009054906101000a900473ffffffffffffffffffffffffffffffffffffffff1673ffffffffffffffffffffffffffffffffffffffff16815260200190600101908083116109e3575b505050505090509091929394959697565b6000600960008373ffffffffffffffffffffffffffffffffffffffff1673ffffffffffffffffffffffffffffffffffffffff168152602001908152602001600020549050919050565b60008054906101000a900473ffffffffffffffffffffffffffffffffffffffff1681565b60008054906101000a900473ffffffffffffffffffffffffffffffffffffffff1673ffffffffffffffffffffffffffffffffffffffff163373ffffffffffffffffffffffffffffffffffffffff1614610b0357600080fd5b8060038190555050565b60035481565b60045481565b60008054906101000a900473ffffffffffffffffffffffffffffffffffffffff1673ffffffffffffffffffffffffffffffffffffffff163373ffffffffffffffffffffffffffffffffffffffff1614610b7157600080fd5b600560009054906101000a900473ffffffffffffffffffffffffffffffffffffffff1673ffffffffffffffffffffffffffffffffffffffff1663a9059cbb33836040518363ffffffff1660e01b8152600401610bce9291906114a2565b6020604051808303816000875af1158015610bed573d6000803e3d6000fd5b505050506040513d601f19601f82011682018060405250810190610c11919061155a565b5080600a6000600560009054906101000a900473ffffffffffffffffffffffffffffffffffffffff1673ffffffffffffffffffffffffffffffffffffffff1673ffffffffffffffffffffffffffffffffffffffff1681526020019081526020016000206000828254610c8391906114fa565b9250508190555050565b60025481565b600560009054906101000a900473ffffffffffffffffffffffffffffffffffffffff1681565b60008060009054906101000a900473ffffffffffffffffffffffffffffffffffffffff1673ffffffffffffffffffffffffffffffffffffffff163373ffffffffffffffffffffffffffffffffffffffff1614610d1457600080fd5b81600560006101000a81548173ffffffffffffffffffffffffffffffffffffffff021916908373ffffffffffffffffffffffffffffffffffffffff160217905590506006829080600181540180825580915050600190039060005260206000200160009091909190916101000a81548173ffffffffffffffffffffffffffffffffffffffff021916908373ffffffffffffffffffffffffffffffffffffffff160217905550919050565b6002548111610dcc57600080fd5b600560009054906101000a900473ffffffffffffffffffffffffffffffffffffffff1673ffffffffffffffffffffffffffffffffffffffff166323b872dd3330846040518463ffffffff1660e01b8152600401610e2b939291906115b0565b6020604051808303816000875af1158015610e4a573d6000803e3d6000fd5b505050506040513d601f19601f82011682018060405250810190610e6e919061155a565b50600760009054906101000a900473ffffffffffffffffffffffffffffffffffffffff1673ffffffffffffffffffffffffffffffffffffffff166340c10f1933836040518363ffffffff1660e01b8152600401610ecc9291906114a2565b600060405180830381600087803b158015610ee657600080fd5b505af1158015610efa573d6000803e3d6000fd5b5050505060001515600860003373ffffffffffffffffffffffffffffffffffffffff1673ffffffffffffffffffffffffffffffffffffffff16815260200190815260200160002060009054906101000a900460ff16151503610fc7576001600860003373ffffffffffffffffffffffffffffffffffffffff1673ffffffffffffffffffffffffffffffffffffffff16815260200190815260200160002060006101000a81548160ff02191690831515021790555060046000815480929190610fc1906115e7565b91905055505b80600960003373ffffffffffffffffffffffffffffffffffffffff1673ffffffffffffffffffffffffffffffffffffffff1681526020019081526020016000206000828254611016919061162f565b9250508190555080600a6000600560009054906101000a900473ffffffffffffffffffffffffffffffffffffffff1673ffffffffffffffffffffffffffffffffffffffff1673ffffffffffffffffffffffffffffffffffffffff168152602001908152602001600020600082825461108e919061162f565b9250508190555050565b600681815481106110a857600080fd5b906000526020600020016000915054906101000a900473ffffffffffffffffffffffffffffffffffffffff1681565b60008060009054906101000a900473ffffffffffffffffffffffffffffffffffffffff1673ffffffffffffffffffffffffffffffffffffffff163373ffffffffffffffffffffffffffffffffffffffff161461113257600080fd5b8160028190559050919050565b600160009054906101000a900473ffffffffffffffffffffffffffffffffffffffff1681565b600080fd5b600073ffffffffffffffffffffffffffffffffffffffff82169050919050565b60006111958261116a565b9050919050565b6111a58161118a565b81146111b057600080fd5b50565b6000813590506111c28161119c565b92915050565b6000602082840312156111de576111dd611165565b5b60006111ec848285016111b3565b91505092915050565b6000819050919050565b611208816111f5565b82525050565b600060208201905061122360008301846111ff565b92915050565b60008115159050919050565b61123e81611229565b82525050565b60006020820190506112596000830184611235565b92915050565b611268816111f5565b811461127357600080fd5b50565b6000813590506112858161125f565b92915050565b6000602082840312156112a1576112a0611165565b5b60006112af84828501611276565b91505092915050565b6112c18161118a565b82525050565b60006020820190506112dc60008301846112b8565b92915050565b600081519050919050565b600082825260208201905092915050565b6000819050602082019050919050565b6113178161118a565b82525050565b6000611329838361130e565b60208301905092915050565b6000602082019050919050565b600061134d826112e2565b61135781856112ed565b9350611362836112fe565b8060005b8381101561139357815161137a888261131d565b975061138583611335565b925050600181019050611366565b5085935050505092915050565b6000610100820190506113b6600083018b6111ff565b6113c3602083018a6111ff565b6113d060408301896111ff565b6113dd60608301886111ff565b6113ea60808301876112b8565b6113f760a08301866112b8565b61140460c08301856112b8565b81810360e08301526114168184611342565b90509998505050505050505050565b600082825260208201905092915050565b7f4e6f7420456e6f7567682046756e647300000000000000000000000000000000600082015250565b600061146c601083611425565b915061147782611436565b602082019050919050565b6000602082019050818103600083015261149b8161145f565b9050919050565b60006040820190506114b760008301856112b8565b6114c460208301846111ff565b9392505050565b7f4e487b7100000000000000000000000000000000000000000000000000000000600052601160045260246000fd5b6000611505826111f5565b9150611510836111f5565b9250828203905081811115611528576115276114cb565b5b92915050565b61153781611229565b811461154257600080fd5b50565b6000815190506115548161152e565b92915050565b6000602082840312156115705761156f611165565b5b600061157e84828501611545565b91505092915050565b6000611592826111f5565b9150600082036115a5576115a46114cb565b5b600182039050919050565b60006060820190506115c560008301866112b8565b6115d260208301856112b8565b6115df60408301846111ff565b949350505050565b60006115f2826111f5565b91507fffffffffffffffffffffffffffffffffffffffffffffffffffffffffffffffff8203611624576116236114cb565b5b600182019050919050565b600061163a826111f5565b9150611645836111f5565b925082820190508082111561165d5761165c6114cb565b5b9291505056fea2646970667358221220b295a02f0e7b74269ef64039f7732e39bc1e76b17ae8282fd82659c23bed1aa864736f6c63430008110033",
  "linkReferences": {},
  "deployedLinkReferences": {}
}